:100000000C9435000C945D000C945D000C945D0024
:100010000C945D000C945D000C945D000C945D00EC
:100020000C945D000C945D000C945D000C945D00DC
:100030000C945D000C945D000C945D000C945D00CC
:100040000C9413020C945D000C9483020C945D02DA
:100050000C945D000C945D000C945D000C945D00AC
:100060000C945D000C945D009C0511241FBECFEF25
:10007000D8E0DEBFCDBF11E0A0E0B1E0E6EEFBE0EE
:1000800002C005900D92AE37B107D9F723E0AEE775
:10009000B1E001C01D92A33CB207E1F710E0C5E357
:1000A000D0E004C02197FE010E94EB05C433D107C4
:1000B000C9F70E94B5020C94F1050C940000AF92B0
:1000C000BF92CF92DF92EF92FF920F931F93CF9345
:1000D000DF936C017B018B01040F151FEB015E01A7
:1000E000AE18BF08C017D10759F06991D601ED913C
:1000F000FC910190F081E02DC6010995892B79F7DB
:10010000C501DF91CF911F910F91FF90EF90DF908C
:10011000CF90BF90AF900895FC01538D448D252F53
:1001200030E0842F90E0821B930B541710F0CF9691
:10013000089501970895FC01918D828D981761F0C3
:10014000A28DAE0FBF2FB11D5D968C91928D9F5FDA
:100150009F73928F90E008958FEF9FEF0895FC01B9
:10016000918D828D981731F0828DE80FF11D858D6C
:1001700090E008958FEF9FEF0895FC01918D228DFF
:10018000892F90E0805C9F4F821B91098F73992784
:10019000089586E293E00E94BD0021E0892B09F4D6
:1001A00020E0822F089580E090E0892B29F00E94C2
:1001B000C90081110C9400000895FC01A48DA80FC2
:1001C000B92FB11DA35ABF4F2C91848D90E0019699
:1001D0008F739927848FA689B7892C93A089B189B9
:1001E0008C91837080648C93938D848D981306C05A
:1001F0000288F389E02D80818F7D80830895EF92BE
:10020000FF920F931F93CF93DF93EC0181E0888FD0
:100210009B8D8C8D98131AC0E889F989808185FFA0
:1002200015C09FB7F894EE89FF896083E889F98942
:1002300080818370806480839FBF81E090E0DF9144
:10024000CF911F910F91FF90EF900895F62E0B8D97
:1002500010E00F5F1F4F0F731127E02E8C8D8E1152
:100260000CC00FB607FCFACFE889F989808185FFB9
:10027000F5CFCE010E94DD00F1CFEB8DEC0FFD2F0D
:10028000F11DE35AFF4FF0829FB7F8940B8FEA8974
:10029000FB8980818062CFCFCF93DF93EC01888D83
:1002A0008823B9F0AA89BB89E889F9898C9185FDF1
:1002B00003C0808186FD0DC00FB607FCF7CF8C917F
:1002C00085FFF2CF808185FFEDCFCE010E94DD005A
:1002D000E9CFDF91CF9108959B0143E035952795B4
:1002E0004A95E1F7FC0153E0EE0FFF1F5A95E1F745
:1002F000E355FE4FE20FF31FAB014770552721E096
:1003000030E0D90101C0AA0F4A95EAF742814A2B91
:100310004283AC01E3E055954795EA95E1F7FB018F
:10032000A3E0EE0FFF1FAA95E1F7E355FE4FE40FA0
:10033000F51F8770992701C0220F8A95EAF78281FD
:10034000282B22830895FC0101900020E9F73197C2
:10035000AF01481B590BBC0186E293E00C945F008F
:100360008F929F92AF92BF920F931F93CF93DF9381
:10037000CDB7DEB7A1970FB6F894DEBF0FBECDBFE5
:1003800019A2423008F44AE08E010F5D1F4F842EFF
:10039000912CB12CA12CA50194010E94C905E62F36
:1003A000B901CA01EA30F4F4E05DD801EE938D01A1
:1003B000232B242B252B79F790E080E0109719F060
:1003C000CD010E94A301A1960FB6F894DEBF0FBE27
:1003D000CDBFDF91CF911F910F91BF90AF909F90B4
:1003E0008F900895E95CE1CFCF93DF930E94A30142
:1003F000EC0186E191E00E94A3018C0F9D1FDF912B
:10040000CF91089598E0899FF0011124E355FE4FA4
:10041000608170E090E080E04AE00E94B00180E5F9
:1004200091E00C94A3011F920F920FB60F9211242A
:100430002F933F938F939F93AF93BF93809122030A
:1004400090912303A0912403B091250330912103BF
:1004500023E0230F2D3758F50196A11DB11D2093E0
:1004600021038093220390932303A0932403B0934A
:10047000250380911D0390911E03A0911F03B0914D
:1004800020030196A11DB11D80931D0390931E03AF
:10049000A0931F03B0932003BF91AF919F918F91C1
:1004A0003F912F910F900FBE0F901F90189526E847
:1004B000230F0296A11DB11DD2CF1F920F920FB62E
:1004C0000F9211242F933F934F935F936F937F93DA
:1004D0008F939F93AF93BF93EF93FF9386E293E045
:1004E0000E94DD00FF91EF91BF91AF919F918F919D
:1004F0007F916F915F914F913F912F910F900FBE20
:100500000F901F9018951F920F920FB60F92112403
:100510002F938F939F93EF93FF93E0913603F09186
:1005200037038081E0913C03F0913D0382FD1BC0C5
:10053000908180913F038F5F8F73209140038217DA
:1005400041F0E0913F03F0E0EA5DFC4F958F80932E
:100550003F03FF91EF919F918F912F910F900FBECD
:100560000F901F9018958081F4CF789484B58260A5
:1005700084BD84B5816084BD85B5826085BD85B547
:10058000816085BD80916E00816080936E001092C5
:100590008100809181008260809381008091810040
:1005A00081608093810080918000816080938000D1
:1005B0008091B10084608093B1008091B00081602F
:1005C0008093B00080917A00846080937A0080915B
:1005D0007A00826080937A0080917A0081608093B3
:1005E0007A0080917A00806880937A001092C1002E
:1005F000E0913603F091370382E08083E09132038B
:10060000F091330381E08083E0913403F09135036E
:1006100080EA808310923E03E0913A03F0913B031D
:1006200086E08083E0913803F09139038081806116
:100630008083E0913803F091390380818860808362
:10064000E0913803F0913903808180688083E091E4
:100650003803F091390380818F7D808330E0432E11
:1006600030E0532E80910301882309F442C2909117
:100670007E0180E0E92FE80F28E0E29FF0011124DD
:10068000E355FE4F808311821282138214821582F9
:10069000168217828F5F8E3269F7925D90937E018A
:1006A0006CE270E090E080E00E946C0161E070E03C
:1006B00090E080E00E946C0162E070E081E090E0F8
:1006C0000E946C0163E070E082E090E00E946C01A7
:1006D00064E070E083E090E00E946C0165E070E00F
:1006E00084E090E00E946C0166E070E085E090E0BC
:1006F0000E946C0167E070E086E090E00E946C016F
:1007000068E070E087E090E00E946C0169E070E0D2
:1007100088E090E00E946C016AE070E089E090E07F
:100720000E946C016BE070E08AE090E00E946C0136
:100730006CE070E08BE090E00E946C016DE070E096
:100740008CE090E00E946C016EE070E08DE090E043
:100750000E946C016FE070E08EE090E00E946C01FE
:1007600060E170E08FE090E00E946C0161E170E078
:1007700080E190E00E946C0162E170E081E190E034
:100780000E946C0163E170E082E190E00E946C01E4
:1007900064E170E083E190E00E946C0165E170E04B
:1007A00084E190E00E946C0166E170E085E190E0F8
:1007B0000E946C0167E170E086E190E00E946C01AC
:1007C00068E170E087E190E00E946C0169E170E00F
:1007D00088E190E00E946C016AE170E089E190E0BC
:1007E0000E946C016BE170E08AE190E00E946C0174
:1007F0006CE170E08BE190E00E946C016DE170E0D3
:100800008CE190E00E946C016EE170E08CE190E080
:100810000E946C016DE270E08DE190E00E946C013D
:100820006FE170E08EE190E00E946C0160E270E0A8
:100830008FE190E00E946C0161E270E080E290E064
:100840000E946C0162E270E081E290E00E946C0123
:1008500063E270E082E290E00E946C0164E270E08A
:1008600083E290E00E946C0165E270E084E290E037
:100870000E946C0166E270E085E290E00E946C01EB
:1008800067E270E086E290E00E946C0168E270E04E
:1008900087E290E00E946C0169E270E088E290E0FB
:1008A0000E946C016AE270E089E290E00E946C01B3
:1008B0006BE270E08AE290E00E946C016CE270E012
:1008C0008BE290E00E946C016DE270E08CE290E0BF
:1008D0000E946C0131E03093AE0180E00E94020280
:1008E000E0910001EF5FE09300010E2E000CFF0B82
:1008F000E158FE4F108289E191E00E94A3014AE095
:1009000061E070E080E090E00E94B00186E191E05B
:100910000E94A30122242394309000018FEF38120B
:100920000CC090917E01EDEAF1E080E0981709F4A7
:10093000ABC011828F5F3896F9CF832D032C000C4A
:10094000990BFC01E158FE4F0081E8E00E028001A6
:10095000112401551E4F2DEAA22E21E0B22E912C1A
:10096000812C7C01FFEFEF1AFF0AF80161908F01E3
:10097000712CD0E0C0E081E090E00C2E02C0880F26
:10098000991F0A94E2F7862197210C2E02C09595B3
:1009900087950A94E2F7019731F56401CC0EDD1ECC
:1009A000FE0193E0EE0FFF1F9A95E1F7EA0DFB1DA4
:1009B00080819181992309F4A8C08C32A1F480919F
:1009C000010190910201E816F90668F4F092020123
:1009D000E0920101311003C080E00E9402028C2FDE
:1009E000880D0E9402022196C830D10521F628E028
:1009F000820E911C30E4A30EB11C80E38816910492
:100A000009F0B3CF809100018150809300018111E2
:100A100083CF239488E191E00E94F40188E191E082
:100A20000E94F40189E191E00E94A301622D70E02F
:100A300090E080E04AE00E94B00186E191E00E94EF
:100A4000A3016ACF4F3F5F4F09F471C0211103C06A
:100A500080E00E940202F60183E0EE0FFF1F8A95FC
:100A6000E1F7E355FE4F21E021838C2D0E94020225
:100A7000E0910001EF5FE09300010E2E000CFF0BF0
:100A8000E158FE4FC08248CF809101019091020150
:100A90008F30974219F186E191E00E94A30182E232
:100AA00091E00E94A3014AE06CE270E080E090E0F7
:100AB0000E94B0018DE491E00E94A30160910101C8
:100AC0007091020190E080E04AE00E94B00182E56E
:100AD00091E00E94F40110920301C4CD88E191E0FD
:100AE0000E94F40188E191E00E94F4018CE591E01C
:100AF000F0CF4114510409F4B5CD0E94C9008823F8
:100B000009F4B0CD0E940000ADCD209100018C32DF
:100B100009F09CCF822F022E000C990B0196409178
:100B20000101509102018417950708F08BCF909333
:100B30000201809301018ACFE6E2F3E01382128280
:100B400088EE93E0A0E0B0E084839583A683B7832A
:100B500088E091E09183808385EC90E0958784879D
:100B600084EC90E09787868780EC90E0918B808B77
:100B700081EC90E0938B828B82EC90E0958B848B60
:100B800086EC90E0978B868B118E128E138E148ECE
:100B90000895A1E21A2EAA1BBB1BFD010DC0AA1FBE
:100BA000BB1FEE1FFF1FA217B307E407F50720F0D6
:100BB000A21BB30BE40BF50B661F771F881F991F51
:100BC0001A9469F760957095809590959B01AC019A
:100BD000BD01CF010895EE0FFF1F0590F491E02DA8
:060BE0000994F894FFCF18
:100BE600FF0F270100000000FF005F008C004C0192
:100BF600BD009B00AF000D0A0043616D696E686F12
:100C06002000437573746F20646F206D656C686F88
:100C1600722063616D696E686F2070617274696EAF
:100C2600646F2064652030206174652000203D3D9E
:100C3600200020756E696461646573004573736591
:100C46002070726F626C656D61206E616F207465D5
:0E0C56006D20736F6C75636F6573203A280014
:00000001FF
